:020000040000FA
:0400000007EF00F016
:0A0008005D8291ED1DF0AFEF1DF0D9
:1008000000020001000000D20000000E046E050E80
:10081000036EFCEC1DF0000E516E000E506E50C0C9
:1008200011F051C012F015EC1AF0566E000E536E16
:10083000000E526E000E156E000E166E7F0E176EB5
:10084000430E186E52C003F053C004F0000E04BEF5
:10085000FF0E056E066E010E36EC16F003C011F0A9
:1008600004C012F005C013F006C014F0DAEC10F06A
:1008700011C02AF012C02BF013C02CF014C02DF0C0
:100880005650D96EDA6ADF50436E4350036E046AE5
:10089000056A066A010E36EC16F003C02EF004C09D
:1008A0002FF005C030F006C031F081EC0CF02AC00A
:1008B00044F02BC045F02CC046F02DC047F0000E90
:1008C000156E000E166E7F0E176E430E186E52C018
:1008D00003F053C004F0000E04BEFF0E056E066E5A
:1008E000010E36EC16F003C011F004C012F005C082
:1008F00013F006C014F0DAEC10F011C02AF012C0A8
:100900002BF013C02CF014C02DF05650D96EDA6ABB
:10091000010ED926DF50436E4350036E046A056A08
:10092000066A010E36EC16F003C02EF004C02FF05C
:1009300005C030F006C031F081EC0CF02AC048F060
:100940002BC049F02CC04AF02DC04BF0000E156EA4
:10095000000E166E7F0E176E430E186E52C003F017
:1009600053C004F0000E04BEFF0E056E066E010EAD
:1009700036EC16F003C011F004C012F005C013F0FD
:1009800006C014F0DAEC10F011C02AF012C02BF0FF
:1009900013C02CF014C02DF05650D96EDA6A020E36
:1009A000D926DF50436E4350036E046A056A066A17
:1009B000010E36EC16F003C02EF004C02FF005C077
:1009C00030F006C031F081EC0CF02AC04CF02BC0A6
:1009D0004DF02CC04EF02DC04FF048C003F049C080
:1009E00004F04AC005F04BC006F056EC1BF0035073
:1009F000166E4CC003F04DC004F04EC005F04FC061
:100A000006F056EC1BF00350176E44C003F045C0CF
:100A100004F046C005F047C006F056EC1BF003504A
:100A200073EC1DF0080E5B18D8A412005CA0120035
:100A30005AC003F0046A51EC1DF0010E5224526EAC
:100A4000000E5320536E53BEF5D6535003E1522887
:100A5000D8A0F0D6000E556E5468000E156E000E2C
:100A6000166E7F0E176E430E186E54C003F055C0FD
:100A700004F0000E04BEFF0E056E066E010E36EC8D
:100A800016F003C011F004C012F005C013F006C048
:100A900014F0DAEC10F011C02AF012C02BF013C0E1
:100AA0002CF014C02DF05650D96EDA6ADF50436E28
:100AB0004350036E046A056A066A010E36EC16F0AE
:100AC00003C02EF004C02FF005C030F006C031F096
:100AD00081EC0CF02AC044F02BC045F02CC046F04D
:100AE0002DC047F0000E156E000E166E7F0E176EAD
:100AF000430E186E54C003F055C004F0000E04BE3F
:100B0000FF0E056E066E010E36EC16F003C011F0F6
:100B100004C012F005C013F006C014F0DAEC10F0B7
:100B200011C02AF012C02BF013C02CF014C02DF00D
:100B30005650D96EDA6A010ED926DF50436E435003
:100B4000036E046A056A066A010E36EC16F003C0ED
:100B50002EF004C02FF005C030F006C031F081EC5B
:100B60000CF02AC048F02BC049F02CC04AF02DC030
:100B70004BF0000E156E000E166E7F0E176E430EB4
:100B8000186E54C003F055C004F0000E04BEFF0EF2
:100B9000056E066E010E36EC16F003C011F004C0AF
:100BA00012F005C013F006C014F0DAEC10F011C01A
:100BB0002AF012C02BF013C02CF014C02DF05650A8
:100BC000D96EDA6A020ED926DF50436E4350036EA7
:100BD000046A056A066A010E36EC16F003C02EF0B0
:100BE00004C02FF005C030F006C031F081EC0CF0ED
:100BF0002AC04CF02BC04DF02CC04EF02DC04FF051
:100C000048C003F049C004F04AC005F04BC006F0EC
:100C100056EC1BF00350166E4CC003F04DC004F0B0
:100C20004EC005F04FC006F056EC1BF00350176E97
:100C300044C003F045C004F046C005F047C006F0CC
:100C400056EC1BF0035073EC1DF0080E5B18D8A493
:100C500012005CA012005AC003F0046A51EC1DF0AF
:100C6000FE0E5424546EFF0E5520556E55BE05D011
:100C7000555002E15404D8B0F0D6190E5024506EED
:100C8000000E5120516E51BECAD5515004E150287A
:100C9000D8B01200C4D51200000E536E000E506E74
:100CA00050500A6E096A000E0C6ED20E0B6E02ECEA
:100CB0001CF053500926000E0A220950116E126AC8
:100CC00015EC1AF0526E000E156E000E166E7F0EA9
:100CD000176E430E186E5350036E046A056A066A57
:100CE000010E36EC16F003C011F004C012F005C07E
:100CF00013F006C014F0DAEC10F011C02AF012C0A4
:100D00002BF013C02CF014C02DF05250D96EDA6ABB
:100D1000DF50436E4350036E046A056A066A010E93
:100D200036EC16F003C02EF004C02FF005C030F0F2
:100D300006C031F081EC0CF02AC044F02BC045F025
:100D40002CC046F02DC047F0000E156E000E166E3A
:100D50007F0E176E430E186E5350036E046A056AB9
:100D6000066A010E36EC16F003C011F004C012F052
:100D700005C013F006C014F0DAEC10F011C02AF030
:100D800012C02BF013C02CF014C02DF05250D96EAD
:100D9000DA6A010ED926DF50436E4350036E046AAF
:100DA000056A066A010E36EC16F003C02EF004C088
:100DB0002FF005C030F006C031F081EC0CF02AC0F5
:100DC00048F02BC049F02CC04AF02DC04BF0000E6B
:100DD000156E000E166E7F0E176E430E186E535072
:100DE000036E046A056A066A010E36EC16F003C04B
:100DF00011F004C012F005C013F006C014F0DAECD4
:100E000010F011C02AF012C02BF013C02CF014C047
:100E10002DF05250D96EDA6A020ED926DF50436E99
:100E20004350036E046A056A066A010E36EC16F03A
:100E300003C02EF004C02FF005C030F006C031F022
:100E400081EC0CF02AC04CF02BC04DF02CC04EF0C1
:100E50002DC04FF050C00DF00E6A44C003F045C0E5
:100E600004F046C005F047C006F056EC1BF00350F6
:100E70000F6E48C003F049C004F04AC005F04BC0F3
:100E800006F056EC1BF00350106E4CC003F04DC042
:100E900004F04EC005F04FC006F056EC1BF00350B6
:100EA000116E44EC1CF0502AD10E5064F9D6BDEC02
:100EB0001CF0020E5B18D8A412005CA012005AC0ED
:100EC00003F0046A51EC1DF0532A5328D8A4E6D647
:100ED0005468000E516E51500A6E096A000E0C6E75
:100EE000D20E0B6E02EC1CF054500926000E0A22A2
:100EF0000950116E126A15EC1AF0526E000E156E42
:100F0000000E166E7F0E176E430E186E5450036E51
:100F1000046A056A066A010E36EC16F003C011F089
:100F200004C012F005C013F006C014F0DAEC10F0A3
:100F300011C02AF012C02BF013C02CF014C02DF0F9
:100F40005250D96EDA6ADF50436E4350036E046A22
:100F5000056A066A010E36EC16F003C02EF004C0D6
:100F60002FF005C030F006C031F081EC0CF02AC043
:100F700044F02BC045F02CC046F02DC047F0000EC9
:100F8000156E000E166E7F0E176E430E186E5450BF
:100F9000036E046A056A066A010E36EC16F003C099
:100FA00011F004C012F005C013F006C014F0DAEC22
:100FB00010F011C02AF012C02BF013C02CF014C096
:100FC0002DF05250D96EDA6A010ED926DF50436EE9
:100FD0004350036E046A056A066A010E36EC16F089
:100FE00003C02EF004C02FF005C030F006C031F071
:100FF00081EC0CF02AC048F02BC049F02CC04AF01C
:101000002DC04BF0000E156E000E166E7F0E176E83
:10101000430E186E5450036E046A056A066A010E88
:1010200036EC16F003C011F004C012F005C013F046
:1010300006C014F0DAEC10F011C02AF012C02BF048
:1010400013C02CF014C02DF05250D96EDA6A020E83
:10105000D926DF50436E4350036E046A056A066A60
:10106000010E36EC16F003C02EF004C02FF005C0C0
:1010700030F006C031F081EC0CF02AC04CF02BC0EF
:101080004DF02CC04EF02DC04FF051C00DF00E6A47
:1010900044C003F045C004F046C005F047C006F068
:1010A00056EC1BF003500F6E48C003F049C004F02B
:1010B0004AC005F04BC006F056EC1BF00350106E12
:1010C0004CC003F04DC004F04EC005F04FC006F018
:1010D00056EC1BF00350116E44EC1CF0512AD10E5B
:1010E0005164F9D6BDEC1CF0020E5B18D8A41200B6
:1010F0005CA012005AC003F0046A51EC1DF05406C3
:101100005450D8B41200E5D6000E046E050E036EDE
:10111000FCEC1DF0000E506E000E4F6E000E156EB2
:10112000000E166E7F0E176E430E186E4FC003F042
:1011300050C004F0000E04BEFF0E056E066E010ED8
:1011400036EC16F003C011F004C012F005C013F025
:1011500006C014F0DAEC10F011C02AF012C02BF027
:1011600013C02CF014C02DF05750036E046A056AAA
:10117000066A010E36EC16F003C02EF004C02FF004
:1011800005C030F006C031F081EC0CF02AC043F00D
:101190002BC044F02CC045F02DC046F0000E156E5B
:1011A000000E166E7F0E176E430E186E4FC003F0C2
:1011B00050C004F0000E04BEFF0E056E066E010E58
:1011C00036EC16F003C011F004C012F005C013F0A5
:1011D00006C014F0DAEC10F011C02AF012C02BF0A7
:1011E00013C02CF014C02DF05850036E046A056A29
:1011F000066A010E36EC16F003C02EF004C02FF084
:1012000005C030F006C031F081EC0CF02AC047F088
:101210002BC048F02CC049F02DC04AF0000E156ECE
:10122000000E166E7F0E176E430E186E4FC003F041
:1012300050C004F0000E04BEFF0E056E066E010ED7
:1012400036EC16F003C011F004C012F005C013F024
:1012500006C014F0DAEC10F011C02AF012C02BF026
:1012600013C02CF014C02DF05950036E046A056AA7
:10127000066A010E36EC16F003C02EF004C02FF003
:1012800005C030F006C031F081EC0CF02AC04BF004
:101290002BC04CF02CC04DF02DC04EF047C003F0D9
:1012A00048C004F049C005F04AC006F056EC1BF0F7
:1012B0000350166E4BC003F04CC004F04DC005F057
:1012C0004EC006F056EC1BF00350176E43C003F0FF
:1012D00044C004F045C005F046C006F056EC1BF0D3
:1012E000035073EC1DF0020E5B18D8A412005CB022
:1012F0001200BDEC1CF05AC003F0046A51EC1DF062
:10130000010E4F244F6E000E5020506E50BE06D777
:10131000505003E14F28D8A001D7000E526E5168FB
:10132000000E156E000E166E7F0E176E430E186EB1
:1013300051C003F052C004F0000E04BEFF0E056E53
:10134000066E010E36EC16F003C011F004C012F068
:1013500005C013F006C014F0DAEC10F011C02AF04A
:1013600012C02BF013C02CF014C02DF05750036E98
:10137000046A056A066A010E36EC16F003C02EF008
:1013800004C02FF005C030F006C031F081EC0CF045
:101390002AC043F02BC044F02CC045F02DC046F0CD
:1013A000000E156E000E166E7F0E176E430E186E31
:1013B00051C003F052C004F0000E04BEFF0E056ED3
:1013C000066E010E36EC16F003C011F004C012F0E8
:1013D00005C013F006C014F0DAEC10F011C02AF0CA
:1013E00012C02BF013C02CF014C02DF05850036E17
:1013F000046A056A066A010E36EC16F003C02EF088
:1014000004C02FF005C030F006C031F081EC0CF0C4
:101410002AC047F02BC048F02CC049F02DC04AF03C
:10142000000E156E000E166E7F0E176E430E186EB0
:1014300051C003F052C004F0000E04BEFF0E056E52
:10144000066E010E36EC16F003C011F004C012F067
:1014500005C013F006C014F0DAEC10F011C02AF049
:1014600012C02BF013C02CF014C02DF05950036E95
:10147000046A056A066A010E36EC16F003C02EF007
:1014800004C02FF005C030F006C031F081EC0CF044
:101490002AC04BF02BC04CF02CC04DF02DC04EF0AC
:1014A00047C003F048C004F049C005F04AC006F048
:1014B00056EC1BF00350166E4BC003F04CC004F00A
:1014C0004DC005F04EC006F056EC1BF00350176EF1
:1014D00043C003F044C004F045C005F046C006F028
:1014E00056EC1BF0035073EC1DF0020E5B18D8A4F1
:1014F00012005CB01200BDEC1CF05AC003F0046A8C
:1015000051EC1DF0FE0E5124516EFF0E5220526E12
:1015100052BE1200525003E15104D8A0120000D76D
:10152000000E046E050E036EFCEC1DF0000E256E21
:10153000000E206E20500A6E096A000E0C6ED20E4C
:101540000B6E02EC1CF025500926000E0A220950F1
:10155000116E126A15EC1AF0266E20C00DF00E6A9C
:101560002650D96EDA6ADF500F6E2650D96EDA6ACD
:10157000010ED926DF50106E2650D96EDA6A020E9F
:10158000D926DF50116E44EC1CF05B04D8A4120085
:101590005CA01200BDEC1CF05AC003F0046A51ECD0
:1015A0001DF0202AD10E2064C5D7000E196ED20E70
:1015B000186ED20E166E000E176E1850165E195069
:1015C000175A16C017F0166A16C009F017C00AF0AD
:1015D000000E0C6ED20E0B6E02EC1CF0255009268C
:1015E000000E0A220950116E126A15EC1AF0266ECE
:1015F00018C00DF019C00EF02650D96EDA6ADF500F
:101600000F6E2650D96EDA6A010ED926DF50106EA1
:101610002650D96EDA6A020ED926DF50116E44ECDC
:101620001CF05B04D8A412005CA01200BDEC1CF0FE
:101630005AC003F0046A51EC1DF01806D8A0190630
:1016400019AEB7D7000E1B6E690E1A6E1AC00DF0D8
:101650001BC00EF0000E0F6E000E106E000E116E0D
:1016600044EC1CF01A50D2080D6E1B50D8A0E82A8A
:1016700000080E6E000E0F6E000E106E000E116E42
:1016800044EC1CF05B04D8A412005CA01200BDEC7A
:101690001CF05AC003F0046A51EC1DF01A06D8A0E1
:1016A0001B061BAED3D7000E226E000E216E2150FA
:1016B0000A6E096A000E0C6ED20E0B6E02EC1CF064
:1016C00025500926000E0A220950116E126A15ECE7
:1016D0001AF0266E21C00DF022C00EF02650D96EF1
:1016E000DA6ADF500F6E2650D96EDA6A010ED926FB
:1016F000DF50106E2650D96EDA6A020ED926DF50FE
:10170000116E44EC1CF02150D2080D6E2250D8A06E
:10171000E82A00080E6E2650D96EDA6ADF500F6E86
:101720002650D96EDA6A010ED926DF50106E265087
:10173000D96EDA6A020ED926DF50116E44EC1CF025
:101740005B04D8A412005CA01200BDEC1CF05AC0CF
:1017500003F0046A51EC1DF0214A222A22BEA7D7C9
:10176000225004E1D20E215CD8A0A1D7000E1D6E3C
:10177000000E1C6E1CC00DF01DC00EF0000E0F6E92
:10178000000E106E000E116E44EC1CF01C50D208BE
:101790000D6E1D50D8A0E82A00080E6E000E0F6EC8
:1017A000000E106E000E116E44EC1CF05B04D8A409
:1017B00012005CA01200BDEC1CF05AC003F0046AD9
:1017C00051EC1DF01C4A1D2A1DBED4D71D5004E14A
:1017D000690E1C5CD8A0CED7000E246E690E236E55
:1017E00023500A6E096A000E0C6ED20E0B6E02ECCC
:1017F0001CF025500926000E0A220950116E126AAB
:1018000015EC1AF0266E23C00DF024C00EF0265001
:10181000D96EDA6ADF500F6E2650D96EDA6A010E81
:10182000D926DF50106E2650D96EDA6A020ED926FC
:10183000DF50116E44EC1CF02350D2080D6E245082
:10184000D8A0E82A00080E6E2650D96EDA6ADF505A
:101850000F6E2650D96EDA6A010ED926DF50106E4F
:101860002650D96EDA6A020ED926DF50116E44EC8A
:101870001CF05B04D8A412005CA01200BDEC1CF0AC
:101880005AC003F0046A51EC1DF02306D8A02406C8
:1018900024AEA6D7000E1F6E690E1E6E1FBE2CD082
:1018A0001E50D2080D6E1F50D8A0E82A00080E6EF8
:1018B000000E0F6E000E106E000E116E44EC1CF048
:1018C0001EC00DF01FC00EF0000E0F6E000E106E49
:1018D000000E116E44EC1CF05B04D8A412005CA056
:1018E0001200BDEC1CF05AC003F0046A51EC1DF06C
:1018F0001E06D8A01F06D2D7252A2528D8B4120044
:1019000017D62D50800B366E2D502D243C6E2CBEDC
:101910003C803C50D8B40DD03C28D8A408D0000E50
:101920002A6E000E2B6E000E2C6E000E2D6E2C8E6D
:1019300008D0000E2A6E000E2B6E000E2C6E000ECC
:101940002D6E3150800B361A31503124376E30BE37
:1019500037803750D8B40DD03728D8A408D0000E1F
:101960002E6E000E2F6E000E306E000E316E308E19
:1019700008D0000E2E6E000E2F6E000E306E000E80
:10198000316E3750D8B403D03C50D8A409D0000EE3
:101990002A6E000E2B6E000E2C6E000E2D6E1200A5
:1019A00030502A02F3CF41F0F4CF42F04150386E6C
:1019B000396A3A6A3B6A42503D6E3E6A3F6A406A03
:1019C0002F502B02F3CF41F0F4CF42F04150382694
:1019D000000E39223A223B2242503D26000E3E2282
:1019E0003F2240222E502C02F3CF41F0F4CF42F0A0
:1019F00041503826000E39223A223B2242503D26E1
:101A0000000E3E223F2240223AC03BF039C03AF05D
:101A100038C039F0386A2E502B02F3CF41F0F4CFA2
:101A200042F04150382642503922000E3A22000E30
:101A30003B222F502A02F3CF41F0F4CF42F0415025
:101A4000382642503922000E3A22000E3B223AC07C
:101A50003BF039C03AF038C039F0386A2E502A02CB
:101A6000F3CF41F0F4CF42F04150382642503922B2
:101A7000000E3A22000E3B2230502B02F3CF41F0F1
:101A8000F4CF42F041503D2642503E22000E3F220C
:101A9000000E40222F502C02F3CF41F0F4CF42F041
:101AA00041503D2642503E22000E3F22000E402271
:101AB00030502C02F3CF41F0F4CF42F04150326E5F
:101AC0004250336E346A356A34C035F033C034F076
:101AD00032C033F0326A32503D2633503E22345009
:101AE0003F22355040223B503D26000E3E223F22F1
:101AF00040223AC03BF039C03AF038C039F0386A79
:101B000037503CC032F0336A3226000E3322820E48
:101B10003224416EFF0E3320426E0FD0D8903D36F6
:101B20003E363F3640363BBE3D80D890383639365B
:101B30003A363B364106D8A042063FAEEFD7000EFC
:101B4000376E3BAE17D0FF0E3814326EFF0E3914CD
:101B5000336EFF0E3A14346E7F0E3B14356E3250E6
:101B6000331034103510D8B403D0010E376E02D0C4
:101B70003DB0FBD73750D8B41FD0010E3D26000E24
:101B80003E223F22402240A017D03DC032F03EC04E
:101B900033F03FC034F040C035F0353435323432A4
:101BA0003332323232C03DF033C03EF034C03FF009
:101BB00035C040F0414A422A42BE0DD0425003E1B6
:101BC0004128D8A008D0000E3D6E000E3E6E800E5B
:101BD0003F6E7F0E20D042BE05D042500EE1410440
:101BE000D8B00BD0000E3D6E000E3E6E000E3F6E64
:101BF000000E406E000E366E0FD041C03CF0FF0E5E
:101C00003D16FF0E3E167F0E3F16000E40163CB0EE
:101C10003F8ED8903C30406E365040123DC02AF086
:101C20003EC02BF03FC02CF040C02DF01200000E43
:101C3000046E050E036EFCEC1DF0000E256E000E0A
:101C4000246E000E266E9DD026500A6E096A000E84
:101C50000C6ED20E0B6E02EC1CF02450092625509F
:101C60000A220950116E126A15EC1AF0286E26C06D
:101C70000DF00E6A140E036E2850D96EDA6ADF502A
:101C8000CCEC1DF00F6E140E036E2850D96EDA6A7C
:101C9000010ED926DF50CCEC1DF0106E140E036E31
:101CA0002850D96EDA6A020ED926DF50CCEC1DF02E
:101CB000116E44EC1CF0010E226E1BD02650222423
:101CC0000D6E0E6A0E362850D96EDA6ADF500F6E2E
:101CD0002850D96EDA6A010ED926DF50106E2850CE
:101CE000D96EDA6A020ED926DF50116E44EC1CF070
:101CF000222A22501D6E1E6A1D501B5C1C50800A39
:101D00001F6E1E50800A1F58D8B0D8D726501B24EB
:101D10001D6E000E1C201E6E010E1D240D6E000E89
:101D20001E200E6E140E036E2850D96EDA6ADF5034
:101D3000CCEC1DF00F6E140E036E2850D96EDA6ACB
:101D4000010ED926DF50CCEC1DF0106E140E036E80
:101D50002850D96EDA6A020ED926DF50CCEC1DF07D
:101D6000116E44EC1CF0040E5B18D8A412005CA0A9
:101D70001200BDEC1CF05AC003F0046A51EC1DF0D7
:101D8000262AD00E1D6E000E1E6E1B501D5E1C50AE
:101D90001E5A26501F6E206A1D501F5C2050800A5C
:101DA000216E1E50800A2158D8A04ED7000E166E04
:101DB000000E176E000E73EC1DF01B50D008276E3E
:101DC0002750D8B49ED027500A6E096A000E0C6EB8
:101DD000D20E0B6E02EC1CF02450092625500A226C
:101DE0000950116E126A15EC1AF0286E27C00DF01A
:101DF0000E6A140E036E2850D96EDA6ADF50CCECEE
:101E00001DF00F6E140E036E2850D96EDA6A010EA3
:101E1000D926DF50CCEC1DF0106E140E036E285046
:101E2000D96EDA6A020ED926DF50CCEC1DF0116EA5
:101E300044EC1CF0010E236E1BD0275023240D6EA2
:101E40000E6A0E362850D96EDA6ADF500F6E2850AF
:101E5000D96EDA6A010ED926DF50106E2850D96E7D
:101E6000DA6A020ED926DF50116E44EC1CF0232AE8
:101E700023501D6E1E6A1D501B5C1C50800A1F6E75
:101E80001E50800A1F58D8B0D8D727501B241D6E6B
:101E9000000E1C201E6E010E1D240D6E000E1E2055
:101EA0000E6E140E036E2850D96EDA6ADF50CCEC39
:101EB0001DF00F6E140E036E2850D96EDA6A010EF3
:101EC000D926DF50CCEC1DF0106E140E036E285096
:101ED000D96EDA6A020ED926DF50CCEC1DF0116EF5
:101EE00044EC1CF0040E5B18D8A412005CA0120095
:101EF000BDEC1CF05AC003F0046A51EC1DF027063B
:101F00005FD7244A252A25BE9CD62504D8B01200C6
:101F100098D6000E046E0A0E036EFCEC1DF0000E47
:101F20001A6E1AC00DF00E6A57C00FF058C010F0AC
:101F300059C011F044EC1CF05B04D8A412005CB052
:101F40001200BDEC1CF05AC003F0046A51EC1DF005
:101F50001A2AD10E1A64E5D7000E1B6E1BC00DF0B5
:101F60000E6A000E0F6E000E106E000E116E44EC25
:101F70001CF05B04D8A412005CB01200BDEC1CF095
:101F80005AC003F0046A51EC1DF01B2AD10E1B64E9
:101F9000E5D7000E176ED20E166E16C00DF017C0E4
:101FA0000EF057C00FF058C010F059C011F044ECBB
:101FB0001CF05B04D8A412005CB01200BDEC1CF055
:101FC0005AC003F0046A51EC1DF01606D8A017069B
:101FD00017AEE3D7000E196ED20E186E18C00DF0B2
:101FE00019C00EF0000E0F6E000E106E000E116E76
:101FF00044EC1CF05B04D8A412005CB01200BDECF1
:102000001CF05AC003F0046A51EC1DF01806D8A069
:10201000190619AEE3D7000E1D6E000E1C6E1CC013
:102020000DF01DC00EF057C00FF058C010F059C091
:1020300011F044EC1CF01C50D2080D6E1D50D8A0BD
:10204000E82A00080E6E57C00FF058C010F059C0B3
:1020500011F044EC1CF05B04D8A412005CB0120038
:10206000BDEC1CF05AC003F0046A51EC1DF01C4A90
:102070001D2A1DBED4D71D5004E1D20E1C5CD8A071
:10208000CED7000E1F6E000E1E6E1EC00DF01FC0BC
:102090000EF0000E0F6E000E106E000E116E44EC6E
:1020A0001CF01E50D2080D6E1F50D8A0E82A000860
:1020B0000E6E000E0F6E000E106E000E116E44ECD0
:1020C0001CF05B04D8A412005CB01200BDEC1CF044
:1020D0005AC003F0046A51EC1DF01E4A1F2A1FBEAD
:1020E000D4D71F5004E1D20E1E5CD8A0CED7000E6C
:1020F000216E690E206E2050D2080D6E2150D8A09E
:10210000E82A00080E6E57C00FF058C010F059C0F2
:1021100011F044EC1CF020C00DF021C00EF057C0AF
:102120000FF058C010F059C011F044EC1CF05B04E3
:10213000D8A412005CB01200BDEC1CF05AC003F031
:10214000046A51EC1DF02006D8A0210621AED3D799
:10215000000E236E690E226E2250D2080D6E23509F
:10216000D8A0E82A00080E6E000E0F6E000E106E4A
:10217000000E116E44EC1CF022C00DF023C00EF0D6
:10218000000E0F6E000E106E000E116E44EC1CF06F
:102190005B04D8A412005CB01200BDEC1CF05AC065
:1021A00003F0046A51EC1DF02206D8A0230623BEDA
:1021B0001200D2D71450800B216E14501424286EB4
:1021C00013BE28802850D8B40DD02828D8A408D011
:1021D000000E116E000E126E000E136E000E146EC5
:1021E000138E06D0000E116E000E126E000E136ECE
:1021F000000E146E1850800B211A18501824296EE6
:1022000017BE29802950D8B40DD02928D8A408D0C9
:10221000000E156E000E166E000E176E000E186E74
:10222000178E06D0000E156E000E166E000E176E7D
:10223000000E186E1550161017101810D8A417D0CD
:10224000000E116E000E126E000E136E000E146E54
:10225000800E13127F0E14122150141211C011F0AF
:1022600012C012F013C013F014C014F01200285062
:10227000D8A409D0000E116E000E126E000E136E5F
:10228000000E146E1200295028C019F01A6A195E47
:10229000000E1A5A7F0E1924226E000E1A20236E89
:1022A00011C01DF012C01EF013C01FF014C020F0AA
:1022B000000E116E000E126E000E136E000E146EE4
:1022C000000E246E000E256E000E266E000E276E88
:1022D000000E296E28D02950D8B411D0D8901D36C0
:1022E0001E361F362036D890113612361336143665
:1022F00027BE1180D890243625362636273615502D
:102300001D5C16501E5817501F5818502058D8A042
:1023100009D0278C15501D5E16501E5A17501F5A93
:102320001850205A292A190E2964D5D71D501E107D
:102330001F102010D8B411D024800FD0D89011369F
:1023400012361336143627BE1180D890243625361F
:10235000263627362206D8A0230613AEEFD7000E66
:10236000296E27AE17D0FF0E2414196EFF0E251408
:102370001A6EFF0E26141B6E7F0E27141C6E19504A
:102380001A101B101C10D8B403D0010E296E02D0F5
:1023900011B0FBD72950D8B41FD0010E1126000E62
:1023A00012221322142214A017D011C019F012C047
:1023B0001AF013C01BF014C01CF01C341C321B326A
:1023C0001A32193219C011F01AC012F01BC013F0E2
:1023D0001CC014F0224A232A23BE10D0235003E14C
:1023E0002228D8A00BD0000E236E2268000E116E9A
:1023F000000E126E000E136E000E146E23BE05D07A
:10240000235011E12204D8B00ED0000E236E000E2E
:10241000226E000E116E000E126E000E136E000E74
:10242000146E000E216E22C028F028A002D0138E58
:1024300001D0139ED8902830146E0ED7000E246E53
:10244000050E236E000E206E000E1F6E000E046E31
:102450000A0E036EFCEC1DF0000E1E6E000E1D6ECB
:1024600058C016F059C017F0575073EC1DF0000E0D
:10247000046E140E036E51EC1DF0050E5B18D8A40B
:1024800012005CB012001D4A1E2A1EBEE9D7C40EFF
:102490001D5C090E1E58D8A0E3D7000E266E000E54
:1024A000256E2350255C2650800A1B6E2450800A1E
:1024B0001B58D8B01DD001EC18F0296E25C00DF0C6
:1024C00026C00EF02950D96EDA6ADF500F6E2950FF
:1024D000D96EDA6A010ED926DF50106E2950D96EF6
:1024E000DA6A020ED926DF50116E44EC1CF00CD0D3
:1024F00025C00DF026C00EF057C00FF058C010F0E8
:1025000059C011F044EC1CF0BDEC1CF0050E5B183A
:10251000D8A412005CB012005AC003F0046A51EC57
:102520001DF01F4A202A050E23241B6E000E2420B6
:102530001C6E1F501B1808E120501C18D8A404D092
:102540000A0E2326000E2422254A262A26BEA9D7B3
:10255000265004E1D20E255CD8A0A3D7000E246E2D
:10256000050E236E000E206E000E1F6E000E286EEC
:10257000000E276E2350275C2850800A1B6E2450C3
:10258000800A1B58D8B00DD027C00DF028C00EF01F
:1025900057C00FF058C010F059C011F044EC1CF0B7
:1025A0001CD001EC18F0296E27C00DF028C00EF0E9
:1025B0002950D96EDA6ADF500F6E2950D96EDA6A67
:1025C000010ED926DF50106E2950D96EDA6A020E3C
:1025D000D926DF50116E44EC1CF0BDEC1CF0050E4A
:1025E0005B18D8A412005CB012005AC003F0046A51
:1025F00051EC1DF01F4A202A050E23241B6E000EED
:1026000024201C6E1F501B1808E120501C18D8A451
:1026100004D00A0E2326000E2422274A282A28BE88
:10262000A9D7285004E1D20E275CD8A0A3D7000E6A
:10263000046E640E036E51EC1DF0000E226E000E4F
:10264000216E21C00DF022C00EF057C00FF058C00F
:1026500010F059C011F044EC1CF0BDEC1CF05AC055
:1026600003F0046A51EC1DF0050E5B18D8A41200AB
:102670005CB01200214A222A22BEE3D7225005E193
:10268000D20E215CD8B01200DCD71200000E046E0E
:10269000050E036EFCEC1DF0000E186E000E1D6E94
:1026A000000E1C6E690E1B6E18501B24036E000E6C
:1026B0001C20046E000E066E056885EC1CF003C03D
:1026C00011F004C012F015EC1AF01E6E1D501B2400
:1026D0000D6E000E1C200E6E1E50D96EDA6ADF5091
:1026E0000F6E1E50D96EDA6A010ED926DF50106EB9
:1026F0001E50D96EDA6A020ED926DF50116E44ECF4
:102700001CF01D501BC016F01CC017F0161E171E23
:10271000164A172A165E000E175AD10E16240D6E91
:10272000000E17200E6E1E50D96EDA6ADF500F6E43
:102730001E50D96EDA6A010ED926DF50106E1E5077
:10274000D96EDA6A020ED926DF50116E44EC1CF005
:10275000FB0E1B241B6EFF0E1C201C6E1CAEA4D790
:10276000030E5B18D8A412005CA01200000E0E6EBF
:10277000690E0D6E1E50D96EDA6ADF500F6E1E5054
:10278000D96EDA6A010ED926DF50106E1E50D96E4E
:10279000DA6A020ED926DF50116E44EC1CF0BDEC53
:1027A0001CF05AC003F0046A51EC1DF0000E1A6EC2
:1027B000690E196E1D5019240D6E000E1A200E6E32
:1027C000000E0F6E000E106E000E116E44EC1CF029
:1027D0001D5019C016F01AC017F0161E171E164A03
:1027E000172A165E000E175AD10E16240D6E000E13
:1027F00017200E6E000E0F6E000E106E000E116E82
:1028000044EC1CF0FB0E1924196EFF0E1A201A6EF0
:102810001AAED0D7030E5B18D8A412005CA0120029
:102820001D2A040E1D643CD7182A1828D8B412009B
:1028300035D7380E6019D8A47FD0300E6419D8A4CB
:102840007BD0420E6119D8A40AD0430E6219D8A4D5
:1028500006D0440E6319D8A402D0010E5B6E450E5B
:102860006119D8A40AD0460E6219D8A406D0470E22
:102870006319D8A402D0020E5B6E480E6119D8A469
:102880000AD0490E6219D8A406D0500E6319D8A4F4
:1028900002D0030E5B6E510E6119D8A40AD0520EFD
:1028A0006219D8A406D0530E6319D8A402D0040E1E
:1028B0005B6E540E6119D8A40AD0550E6219D8A4C3
:1028C00006D0560E6319D8A402D0050E5B6E570EC3
:1028D0006119D8A40AD0580E6219D8A406D0590E8E
:1028E0006319D8A402D0060E5B6E6129D8A408D063
:1028F0006229D8A405D06329D8A402D0070E5B6E44
:10290000600E6119D8A40AD0610E6219D8A406D04D
:10291000620E6319D8A402D0080E5B6E630E6119B3
:10292000D8A40AD0640E6219D8A406D0650E631923
:10293000D8A402D0090E5B6E400E6019D8A405D051
:10294000320E6419D8B462C05AF0390E6019D8A496
:102950000AD0310E6419D8A406D061C057F062C005
:1029600058F063C059F0410E6019D8A41200420E0D
:102970006419D8A41200AA0E6119D8A40AD0AA0E0C
:102980006219D8A406D0AB0E6319D8A402D05C801B
:102990001200AB0E6119D8A41200AA0E6219D8A4B5
:1029A0001200AA0E6319D8A412005C90120067BF2F
:1029B000DDEF14F0AED8DEEF14F0A1D867BDE4EF80
:1029C00014F0A7D8E5EF14F09AD867BBEBEF14F03A
:1029D000A0D8ECEF14F093D867B9F2EF14F099D8BF
:1029E000F3EF14F08CD867B7F9EF14F092D8FAEF40
:1029F00014F085D867B500EF15F08BD801EF15F00E
:102A00007ED867B307EF15F084D808EF15F077D8B4
:102A100067B10EEF15F07DD80FEF15F070D868BFD5
:102A200015EF15F076D816EF15F069D868BD1CEFD4
:102A300015F06FD81DEF15F062D868BB23EF15F0C5
:102A400068D824EF15F05BD868B92AEF15F061D883
:102A50002BEF15F054D868B731EF15F05AD832EF94
:102A600015F04DD868B538EF15F053D839EF15F09B
:102A700046D868B33FEF15F04CD840EF15F03FD87B
:102A800068B146EF15F045D847EF15F038D866BF66
:102A90004DEF15F03ED84EEF15F031D866BD54EF2E
:102AA00015F037D855EF15F02AD866BB5BEF15F057
:102AB00030D85CEF15F023D866B962EF15F029D84D
:102AC00063EF15F01CD866B769EF15F022D86AEFEE
:102AD00015F015D866B570EF15F01BD871EF15F02D
:102AE0000ED866B377EF15F014D878EF15F007D845
:102AF00066B17DEF15F00DD8120001D812008A885A
:102B000000F000F000F000F000F000F000F08A9813
:102B100012008A8800F000F000F08A981200000E7F
:102B20001A6E050E196E000E046E050E036EFCEC97
:102B30001DF0000E1C6E000E1B6E1BC011F01CC0A1
:102B400012F015EC1AF0236E000E1E6E000E1D6EB4
:102B500078D0000E206E000E1F6E1D501F240D6ECB
:102B60001E5020200E6E2350D96EDA6ADF50166E8A
:102B7000D89016300F6E2350D96EDA6A010ED9261E
:102B8000DF50176ED8901730106E2350D96EDA6A66
:102B9000020ED926DF50186ED8901830116E44EC12
:102BA0001CF019501F241F6E1A502020206E20BECA
:102BB000D4D7205004E1D20E1F5CD8A0CED7090E86
:102BC0005B18D8A412005CA01200BDEC1CF05AC027
:102BD00003F0046A51EC1DF0000E226E000E216E0F
:102BE0001D5021240D6E1E5022200E6E2350D96ED2
:102BF000DA6ADF500F6E2350D96EDA6A010ED926D9
:102C0000DF50106E2350D96EDA6A020ED926DF50DB
:102C1000116E44EC1CF019502124216E1A50222010
:102C2000226E22BEDDD7225004E1D20E215CD8A054
:102C3000D7D7090E5B18D8A412005CA012001D4A59
:102C40001E2A19501D5C1E50800A166E1A50800AEA
:102C50001658D8A07ED71B4A1C2A1CBE6ED71C5003
:102C600004E11B28D8B0120068D712000B6E0B507D
:102C7000D8A406AE1AD003C007F004C008F005C0FF
:102C800009F006C00AF0071E081E091E0A1E072AC0
:102C9000000E082209220A2207C00DF008C00EF01B
:102CA00009C00FF00AC010F008D003C00DF004C036
:102CB0000EF005C00FF006C010F003500410051010
:102CC0000610D8A409D0000E036E000E046E000E8C
:102CD000056E000E066E1200960E0C6E06D00C2AC3
:102CE000D89010320F320E320D32000E0D14076ED6
:102CF000000E0E14086E000E0F14096EFE0E101456
:102D00000A6E0750081009100A10D8B40DD0E7D782
:102D10000C2A010E0D26000E0E220F221022D89032
:102D200010320F320E320D32000E0D14076E000EEF
:102D30000E14086E000E0F14096EFF0E10140A6EAA
:102D40000750081009100A10D8B407D0E1D70C06B4
:102D5000D8900D360E360F3610360FBE03D0020E49
:102D60000C60F5D70CA00F9ED8900C320CC007F069
:102D7000086A096A0A6A07C00AF0096A086A076AE3
:102D800007500D1208500E1209500F120A5010125F
:102D90000B50D8A406AE01D0108E0DC003F00EC0AB
:102DA00004F00FC005F010C006F01200000E046E13
:102DB000010E036EFCEC1DF0000E1D6E000E1F6E6A
:102DC000000E1E6E18D0000E166E000E176E1E50EE
:102DD00073EC1DF021D01EC016F0000E176E000E11
:102DE00073EC1DF019D0000E166E1EC017F0000E09
:102DF00073EC1DF011D01D501B6E1C6A1C50000A94
:102E0000D8A40AD01B50000AD8B4DDD7010AD8B420
:102E1000E2D7030AD8B4E7D7020E5B18D8B408D0BB
:102E2000000E166E000E176E000E73EC1DF01200F1
:102E30005AC003F0046A51EC1DF01E4A1F2A1FBE3F
:102E4000DAD71F5003E11E28D8A0D5D7000E216E77
:102E5000206818D0000E166E000E176E205073EC0E
:102E60001DF021D020C016F0000E176E000E73EC7E
:102E70001DF019D0000E166E20C017F0000E73EC76
:102E80001DF011D01D501B6E1C6A1C50000AD8A4E6
:102E90000AD01B50000AD8B4DDD7010AD8B4E2D753
:102EA000030AD8B4E7D7020E5B18D8B408D0000ED6
:102EB000166E000E176E000E73EC1DF012005AC055
:102EC00003F0046A51EC1DF02006D8A0210621BEB3
:102ED00005D02150D7E12004D8B0D4D71D2A020E46
:102EE0001D646CD71200000E046E050E036EFCEC20
:102EF0001DF0000E1C6E000E196E690E186E1C502F
:102F000018240D6E000E19200E6E57C00FF058C019
:102F100010F059C011F044EC1CF01C5018C016F011
:102F200019C017F0161E171E164A172A165E000E35
:102F3000175AD10E16240D6E000E17200E6E57C0B4
:102F40000FF058C010F059C011F044EC1CF0FB0E0B
:102F50001824186EFF0E1920196E19AED0D7030E63
:102F60005B18D8A412005CB01200000E0E6E690E41
:102F70000D6E57C00FF058C010F059C011F044EC5E
:102F80001CF0BDEC1CF05AC003F0046A51EC1DF0BB
:102F9000000E1B6E690E1A6E1C501A240D6E000E68
:102FA0001B200E6E000E0F6E000E106E000E116EC6
:102FB00044EC1CF01C501AC016F01BC017F0161E73
:102FC000171E164A172A165E000E175AD10E16241F
:102FD0000D6E000E17200E6E000E0F6E000E106E9E
:102FE000000E116E44EC1CF0FB0E1A241A6EFF0E3C
:102FF0001B201B6E1BAED0D71C2A040E1C647BD773
:103000001200000E076E000E066E0650570FD96EA6
:10301000DA6A0650080FE16EE26ADFCFE7FF064A80
:10302000072A07BEF2D7075004E1030E065CD8A0BA
:10303000ECD7000E0C6E000E0B6E0B50080FD96E05
:10304000DA6A320EDF600DD00B50080FD96EDA6AE3
:103050000A0EDF6406D00B50080FD96EDA6A140E20
:103060004FD00B50080FD96EDA6A640EDF600DD0B6
:103070000B50080FD96EDA6A320EDF6406D00B509F
:10308000080FD96EDA6A190E3BD00B50080FD96EB3
:10309000DA6A960EDF600DD00B50080FD96EDA6A2F
:1030A000640EDF6406D00B50080FD96EDA6A320E58
:1030B00027D00B50080FD96EDA6AC80EDF600DD02A
:1030C0000B50080FD96EDA6A960EDF6406D00B50EB
:1030D000080FD96EDA6A4B0E13D00B50080FD96E59
:1030E000DA6ADE28D8B40DD00B50080FD96EDA6A30
:1030F000C80EDF6406D00B50080FD96EDA6A640E72
:10310000DF5E0B4A0C2A0CBE98D70C5004E1030E6C
:103110000B5CD8A092D7080E1200000E046E050EAC
:10312000036EFCEC1DF0000E226E33D0000E166E06
:10313000000E176E000E73EC1DF0010E236E0ED004
:10314000225023240D6E0E6A0E3657C00FF058C061
:1031500010F059C011F044EC1CF0232A23501D6ECE
:103160001E6A1D501B5C1C50800A1F6E1E50800A78
:103170001F58D8B0E5D7040E5B18D8A412005CB075
:103180001200BDEC1CF05AC003F0046A51EC1DF0B3
:10319000222AD00E1D6E000E1E6E1B501D5E1C508E
:1031A0001E5A22501F6E206A1D501F5C2050800A3C
:1031B000216E1E50800A2158D8A0B8D71B50D008C5
:1031C000256E2550D8B41200000E166E000E176E34
:1031D000000E73EC1DF0010E246E0ED02550242439
:1031E0000D6E0E6A0E3657C00FF058C010F059C061
:1031F00011F044EC1CF0242A24501D6E1E6A1D5050
:103200001B5C1C50800A1F6E1E50800A1F58D8B0CD
:10321000E5D7040E5B18D8A412005CB01200BDEC18
:103220001CF05AC003F0046A51EC1DF02506C9D702
:10323000000E046E050E036EFCEC1DF0000E176E02
:10324000000E166E000E196E000E186E18C003F0F8
:1032500019C004F0000E066E0568E9EC1DF003C00D
:1032600009F004C00AF0000E0C6ED20E0B6E02ECD8
:103270001CF01650092617500A220950116E126AC6
:1032800015EC1AF01A6E1850D2080D6E1950D8A00D
:10329000E82A00080E6E1A50D96EDA6ADF500F6EF7
:1032A0001A50D96EDA6A010ED926DF50106E1A5004
:1032B000D96EDA6A020ED926DF50116E44EC1CF08A
:1032C00018C00DF019C00EF01A50D96EDA6ADF502E
:1032D0000F6E1A50D96EDA6A010ED926DF50106EC1
:1032E0001A50D96EDA6A020ED926DF50116E44ECFC
:1032F0001CF0184A192A19BEA9D7195004E1D20E98
:10330000185CD8A0A3D7050E5B18D8A412005CA047
:103310001200BDEC1CF05AC003F0046A51EC1DF021
:10332000164A172A17BE8ED7175004E11628D8B0B0
:10333000120088D7120023EC1DF0010E046EF40E6B
:10334000036E51EC1DF01AEC1EF04AD05CA003D0C5
:1033500090EC0AF045D089EC0FF042D05CA003D08D
:103360004CEC06F03DD084EC08F03AD05CA003D0E1
:1033700046EC13F035D073EC17F032D05CA007D0D8
:10338000000E1C6E060E1B6E17EC0EF029D0000E00
:103390001C6E060E1B6E8DEC18F022D05CA003D0C4
:1033A00018EC19F01DD01EEC12F01AD05CA003D05E
:1033B000B3EC1BF015D0F5EC1CF012D00CEC1EF0A9
:1033C0000FD05CA003D005EC04F00AD085EC1AF015
:1033D00007D05CA003D08FEC15F002D0F0EC1AF00F
:1033E0005B5000016C6F6D6B6D51000AD8A4E6D77D
:1033F0006C51010AD8B4AAD7030AD8B4AFD7010ACE
:10340000D8B4B4D7070AD8B4B9D7010AD8B4C6D744
:10341000030AD8B4CBD7010AD8B4D0D70F0AD8B48E
:10342000D0D7010AD8B4D5D7C9D712BE06D012500A
:103430000DE12B0E115CD8B009D000016969000EB6
:103440006A6F1150060DF3CF6BF05DD012BE06D03F
:10345000125011E1560E115CD8B00DD0D50E1126C8
:10346000FF0E12221150FA0DF3040001696F000ED5
:103470006A6F6B6948D012BE06D0125010E1810EFF
:10348000115CD8B00CD0AA0E1126FF0E1222000E2D
:103490000001696F1150060DF3CF6AF0EAD712BE32
:1034A00006D0125010E1AB0E115CD8B00CD07F0EDC
:1034B0001126FF0E1222000E0001696F6A69115079
:1034C000FA0DF30413D012BE06D0125011E1D50E3E
:1034D000115CD8B00DD0550E1126FF0E12221150DE
:1034E000060DF3CF69F000016A69000E6B6F0BD017
:1034F0002B0E1126FF0E1222000169691150FA0DE0
:10350000F3046A6FF2D7690E1200000E046E050E06
:10351000036EFCEC1DF0000E1E6E000E1D6E2150A1
:10352000D96EDA6A010ED926DF50166E2150D96E97
:10353000DA6A020ED926DF50176E2150D96EDA6A88
:10354000DF5073EC1DF0000E206E000E1F6E1DC0CC
:1035500011F01EC012F015EC1AF0216E1FC00DF014
:1035600020C00EF02150D96EDA6ADF500F6E215064
:10357000D96EDA6A010ED926DF50106E2150D96E4D
:10358000DA6A020ED926DF50116E44EC1CF0BDEC55
:103590001CF05AC003F0046A51EC1DF01F4A202AA7
:1035A00020BED5D7205004E1D20E1F5CD8A0CFD7C3
:1035B0005AC003F0046A51EC1DF0080E5B18D8A441
:1035C00012005CB01200050E1D26000E1E221EBE4B
:1035D000A6D71E5004E11D28D8B01200A0D71200B3
:1035E000000E1C6E040E1B6E000E046E030E036EA6
:1035F000FCEC1DF0000E1D6E4BD0000E1F6ED20EA7
:103600001E6E1D501E240D6E000E1F200E6ED890D3
:1036100057300F6ED8905830106ED8905930116EC8
:1036200044EC1CF01B501E5C1E6E1C501F581F6E7D
:103630001FAEE7D7090E5B18D8A412005CB01200C9
:10364000BDEC1CF05AC003F0046A51EC1DF0000EF2
:10365000216ED20E206E1D5020240D6E000E2120F2
:103660000E6E57C00FF058C010F059C011F044EC66
:103670001CF01B50205C206E1C502158216E21AE86
:10368000EAD7090E5B18D8A412005CB012001D2AFC
:103690001D50166E176A1B50165C1750800A186E64
:1036A0001C50800A1858D8B01200A7D70534063429
:1036B0000C6E0C50D8A409D0000E036E000E046EE0
:1036C000000E056E000E066E120003C007F004C067
:1036D00008F005C009F006C00AF0200E05D0D89009
:1036E0000A32093208320732E82EF9D707500B6E3A
:1036F000058EFF0E0316FF0E0416FF0E0516000EB4
:103700000616960E0C5E0CAE0DD00C50800A970F6C
:10371000D8A0D2D7D89006320532043203320C3EFC
:10372000F9D70DD01F0E0C6407D0C6D7D89003363A
:103730000436053606360C060C50D8A4F7D70B50C5
:10374000D8B408D0061E051E041E036C000E042209
:103750000522062203C003F004C004F005C005F0F2
:1037600006C006F01200000E046E010E036EFCECA3
:103770001DF0000E1D6E000E1C6E1CC011F01DC051
:1037800012F015EC1AF01B6E1B50D96EDA6A010E9E
:10379000D926DF50166E1B50D96EDA6A020ED92672
:1037A000DF50176E1B50D96EDA6ADF5073EC1DF0D4
:1037B000BDEC1CF05AC003F0046A51EC1DF0000E81
:1037C000166E000E176E000E73EC1DF0BDEC1CF0B3
:1037D0005AC003F0046A51EC1DF0190E1C241C6E33
:1037E000000E1D201D6E1DBEC8D71D04D8A0C5D754
:1037F000060E5B18D8A412005AC003F0046A51ECFC
:103800001DF01200000E0E6E0CAE06D00B6C0C1EDE
:10381000D8B00C2A010E0E6E0AAE06D0096C0A1E34
:10382000D8B00A2A010E0E1A000E106E000E0F6E8E
:103830000B500C10D8B41CD0010E0D6E04D0D890D3
:103840000B360C360D2A0CAEFAD7D8900F36103640
:103850000B50095C0C500A58D8A005D00B50095EDB
:103860000C500A5A0F80D8900C320B320D2EEDD727
:103870000E50D8B404D00F6C101ED8B0102A0FC050
:1038800009F010C00AF012000EBE06D00E503CE146
:10389000D20E0D5CD8B012000DC003F00EC004F0C3
:1038A000000E066E030E056EE9EC1DF0D89003368F
:1038B00004366E0E0324146E000E0420156E0F5095
:1038C000126E136A14C0D9FF15C0DAFF12C0DEFFF2
:1038D00013C0DDFF1050126E136A20EE02F0145078
:1038E000D9261550DA2212C0DEFF13C0DDFF1150B9
:1038F000126E136A20EE04F01450D9261550DA2205
:1039000012C0DEFF13C0DDFF1200000E086E04AE11
:1039100006D0036C041ED8B0042A010E086E06AE51
:1039200004D0056C061ED8B0062A05500610D8B47F
:1039300018D0010E076E04D0D89005360636072A37
:1039400006AEFAD70550035C06500458D8A004D040
:103950000550035E0650045AD89006320532072EF1
:10396000F1D70850D8B404D0036C041ED8B0042A90
:1039700003C003F004C004F012006E0E066E000EC9
:10398000076E000E056E000E046E06C0D9FF07C05C
:10399000DAFFDF500001686F20EE02F00650D926F2
:1039A0000750DA22DF50676F20EE04F00650D92668
:1039B0000750DA22DF50666F060E0626000E072239
:1039C000D7EC14F0044A052A05BEDFD7055004E100
:1039D000D20E045CD8A0D9D7030E036E550EE82E84
:1039E000FED7032EFCD700F01200000E046E010E6D
:1039F000036EFCEC1DF058C016F059C017F057507C
:103A000073EC1DF0BDEC1CF05AC003F0046A51ECDD
:103A10001DF0000E166E000E176E000E73EC1DF0FA
:103A2000BDEC1CF05AC003F0046A51EC1DF0060E08
:103A30005B18D8A412005CB012005AC003F0046AEC
:103A400051EC1DF01200D3A6FED7D38E000E926E5D
:103A5000000E936E000E946E000E956E000E966E24
:103A6000000E806E000E816E000E826E000E836E60
:103A7000000E846EE80ECF6EEE0ECE6E910ECD6E01
:103A8000948C948EE10EAF6E040EB06E240EAC6E6C
:103A9000900EAB6E080EB86E9D8AD09EF28CF28EA0
:103AA000120003500410D8A404D0000E046E010EBE
:103AB000036E000E076E000E066E0AD0100E056E25
:103AC000940EE82EFED7052EFCD700D0064A072A12
:103AD0000350065C0750800A056E0450800A0558A2
:103AE000D8B01200EBD7186E000E1A6E000E196EC9
:103AF00019C00DF01AC00EF018C00FF016C010F06B
:103B000017C011F044EC1CF0194A1A2A1ABEF0D75B
:103B10001A5004E1D20E195CD8A0EAD7BDEC1CF013
:103B200012000600D9CF01F0DACF02F09EAA11D020
:103B300000016551600FD96EDA6AAECFDFFF652BE9
:103B400019EC14F0050E6519D8A402D0000E656FAB
:103B50009E9A02C0DAFF01C0D9FF5D92110000EE0B
:103B60006EF014EEECF0EE6AE550E150FCE1E2504C
:103B7000FAE100EE60F00C0EEE6AE806FDE15C6A28
:103B80005B6A5A6A596A586A576A5D905D92000E7C
:103B9000F86E00019BEF19F0046E000E066E0350E4
:103BA000D8B415D0010E056E03D0D8900336052A7F
:103BB00003AEFBD7D89006360350045CD8A003D0E0
:103BC0000350045E0680D8900332052EF3D70650CA
:103BD000120003500502F3CF07F0F4CF08F00350B2
:103BE0000602F350082604500502F350082607C0C9
:103BF00003F008C004F012005A50056E066A035024
:103C0000055C0650800A076E0450800A0758D8B039
:103C1000120003C05AF01200000E166E000E176E4E
:103C2000000E73EC1DF0000E5B6E140EE82EFED736
:103C300003001200020E5B6ED6EC16F0080E5B6EEF
:0E3C40005C905768000E586E000E596E120010
:020000040020DA
:08000000FFFFFFFFFFFFFFFF00
:020000040030CA
:0E000000018E161EFF0081FF0FC00FE00F40A3
:00000001FF
